:100000000C945D000C9485000C9485000C94850084
:100010000C9485000C9485000C9485000C9485004C
:100020000C9485000C9485000C9485000C9485003C
:100030000C9485000C9485000C9485000C9485002C
:100040000C940F050C9485000C947F050C945905B5
:100050000C9485000C9485000C9485000C9485000C
:100060000C94F0030C94850000000000240027008D
:100070002A0000000000250028002B0004040404CE
:100080000404040402020202020203030303030342
:10009000010204081020408001020408102001021F
:1000A00004081020000000080002010000030407FB
:1000B0000000000000000000B10511241FBECFEFBA
:1000C000D8E0DEBFCDBF11E0A0E0B1E0E4E1F1E1B6
:1000D00002C005900D92AA34B107D9F722E0AAE434
:1000E000B1E001C01D92AE3BB207E1F710E0CDE5F3
:1000F000D0E004C02197FE010E948208CC35D107D0
:10010000C9F70E94F9050C9488080C94000085ED4D
:100110008093BC008091BC0084FDFCCF1092E30171
:1001200008952091BD01260F3327331F2132310559
:10013000ECF42091E301FC0190E080E0243069F0D0
:1001400082E00895A091BD012191AC0145565E4F1A
:10015000A40FB52FB11D2C930196861798F38091AB
:10016000BD01680F6093BD0180E0089581E00895AE
:10017000089508950895E091980180919701E817F6
:1001800030F4F0E0E958FE4F808190E008958FEF61
:100190009FEF089590919801809197012FEF3FEF85
:1001A000981748F4E92FF0E0E958FE4F208130E03D
:1001B0009F5F90939801C901089580919701909154
:1001C0009801891B990B0895CF92DF92EF92FF92CD
:1001D0000F931F93CF93DF937C01CB018A01209172
:1001E0007601222389F0EB016B01C40ED51ECC15DC
:1001F000DD0569F06991D701ED91FC910190F081E5
:10020000E02DC7010995F3CF642F0E949100C8012A
:10021000DF91CF911F910F91FF90EF90DF90CF90E2
:100220000895CF93DF931F92CDB7DEB769832091F6
:1002300076012223F9F020919901203258F021E033
:1002400030E0FC013383228390E080E00F90DF9167
:10025000CF91089580919A01E82FF0E0EA5AFE4F7D
:10026000998190838F5F80939A018093990181E0B7
:1002700090E0ECCF61E0CE0101960E949100F7CFB3
:1002800090E0FC01EC55FF4F2491FC01E057FF4F3B
:100290003491FC01E458FF4FE491EE23C9F022238E
:1002A00039F0233001F1A8F4213019F1223029F17D
:1002B000F0E0EE0FFF1FEE58FF4FA591B4918FB7FE
:1002C000F894EC91611126C030953E233C938FBF8A
:1002D00008952730A9F02830C9F0243049F78091DB
:1002E00080008F7D03C0809180008F778093800095
:1002F000DFCF84B58F7784BDDBCF84B58F7DFBCF17
:100300008091B0008F778093B000D2CF8091B00001
:100310008F7DF9CF3E2BDACFCF93DF9390E0FC01B6
:10032000E057FF4F249184589F4FFC01849188230C
:10033000D1F090E0880F991FFC01E859FF4FA5917B
:10034000B491FC01EE58FF4FC591D49161110EC0DC
:100350009FB7F8948C91E22FE0958E238C9328819F
:10036000E223E8839FBFDF91CF9108958FB7F89480
:10037000EC91E22BEC938FBFF6CF3FB7F8948091CE
:10038000520190915301A0915401B091550126B5AD
:10039000A89B05C02F3F19F00196A11DB11D3FBFBD
:1003A000BA2FA92F982F8827BC01CD01620F711D8C
:1003B000811D911D42E0660F771F881F991F4A9586
:1003C000D1F708958F929F92AF92BF92CF92DF9212
:1003D000EF92FF924B015C010E94BD016B017C0119
:1003E0000E94BD016C197D098E099F09683E73400A
:1003F00081059105A8F321E0821A9108A108B108AE
:1004000088EEC80E83E0D81EE11CF11C8114910413
:10041000A104B10429F7FF90EF90DF90CF90BF9037
:10042000AF909F908F900895AF92BF92CF92DF923E
:10043000EF92FF920F931F93CF93DF936C017B0199
:100440008B01040F151FEB015E01AE18BF08C0172A
:10045000D10759F06991D601ED91FC910190F0819D
:10046000E02DC6010995892B79F7C501DF91CF9160
:100470001F910F91FF90EF90DF90CF90BF90AF90C2
:100480000895FC01538D448D252F30E0842F90E09A
:10049000821B930B541710F0CF960895019708957F
:1004A000FC01918D828D981761F0A28DAE0FBF2F48
:1004B000B11D5D968C91928D9F5F9F73928F90E09E
:1004C00008958FEF9FEF0895FC01918D828D98170D
:1004D00031F0828DE80FF11D858D90E008958FEF4A
:1004E0009FEF0895FC01918D228D892F90E0805C13
:1004F0009F4F821B91098F739927089585E192E0A0
:100500000E94720221E0892B09F420E0822F0895D5
:1005100080E090E0892B29F00E947E0281110C94EA
:1005200000000895FC01A48DA80FB92FB11DA35A96
:10053000BF4F2C91848D90E001968F739927848F03
:10054000A689B7892C93A089B1898C918370806426
:100550008C93938D848D981306C00288F389E02DC7
:1005600080818F7D80830895EF92FF920F931F9378
:10057000CF93DF93EC0181E0888F9B8D8C8D981356
:100580001AC0E889F989808185FF15C09FB7F89462
:10059000EE89FF896083E889F989808183708064AE
:1005A00080839FBF81E090E0DF91CF911F910F91F9
:1005B000FF90EF900895F62E0B8D10E00F5F1F4F08
:1005C0000F731127E02E8C8D8E110CC00FB607FC17
:1005D000FACFE889F989808185FFF5CFCE010E94A5
:1005E0009202F1CFEB8DEC0FFD2FF11DE35AFF4F7F
:1005F000F0829FB7F8940B8FEA89FB898081806233
:10060000CFCFCF93DF93EC01888D8823B9F0AA89EF
:10061000BB89E889F9898C9185FD03C0808186FDBD
:100620000DC00FB607FCF7CF8C9185FFF2CF80810C
:1006300085FFEDCFCE010E949202E9CFDF91CF91ED
:100640000895CF93FC01C48121E020937601C093EB
:100650004A0110929A01109299018385682B89E0D2
:1006600092E00E94110190919901913208F03FC0EF
:100670008091E3018111FCCF82E08093E30181E06E
:100680008093E5018FEF8093E2011092070290932F
:100690000602A6E5B1E0E6EEF1E080E098132FC097
:1006A0001092080280910802CC0FC82BC093080258
:1006B0008091E401813039F51092E40180910802C3
:1006C0008093BB008091BC0083FDF8CF85EC8093C4
:1006D000BC008091E3018230E1F38091E2018F3F21
:1006E00031F08091E201803211F08091E2011092AC
:1006F0009A011092990110927601CF9108952D914F
:1007000021938F5FCBCF85EEE2CF089590E080E01C
:1007100008950F931F93CF938C01C62F0E9421033E
:100720006C2F6460C8010E9421036C2F6B7FC8018D
:100730000E94210383EC90E00197F1F7CF911F9184
:100740000F9108950F931F93CF93DF938C01D62FB2
:10075000C42F607F642B0E94890380E1D89FB00181
:1007600011246C2BC801DF91CF911F910F910C9434
:100770008903CF93DF93CDB7DEB728970FB6F894F0
:10078000DEBF0FBECDBF98E0E0E0F1E0DE011196E4
:1007900001900D929A95E1F79091BA02981708F49A
:1007A0008FEF90E0880F991F21E030E02C0F3D1F64
:1007B000820F931FFC016081606840E082EB92E051
:1007C00028960FB6F894DEBF0FBECDBFDF91CF9154
:1007D0000C94A20341E00E94A20381E090E00895FE
:1007E0001F920F920FB60F9211242F933F934F93A6
:1007F0005F936F937F938F939F93AF93BF93EF9389
:10080000FF938091B900887F803609F44AC0F0F5E3
:10081000883209F4A7C018F5803109F49BC0B8F4F8
:10082000882309F4F9C0883009F494C0FF91EF914E
:10083000BF91AF919F918F917F916F915F914F91F8
:100840003F912F910F900FBE0F901F9018958831F8
:1008500009F488C0803251F78093E20114C08034DB
:1008600009F49DC040F48033B9F38833F9F68093DE
:10087000E20185ECB0C0803509F485C0883509F403
:1008800096C0883499F60E948700D0CF883909F441
:100890008CC038F5883729F050F4883611F080374D
:1008A00029F683E08093E3011092E10157C0883874
:1008B00009F47BC0803919F0803809F0B7CF8091F6
:1008C000E101803208F071C0E091E10181E08E0F1A
:1008D0008093E1018091BB00F0E0EF53FE4F8083F5
:1008E0003DC0803B39F0E0F4803A09F479C0883AA1
:1008F00009F09CCF84E08093E3011092BE01109236
:10090000BD01E091BB01F091BC0109958091BD0151
:1009100081110FC081E08093BD0110929B0109C03D
:10092000803C09F4A6CF883C09F4A3CF883B09F0AA
:100930007DCFE091BE0181E08E0F8093BE01F0E09B
:10094000E556FE4F80818093BB009091BE0180915F
:10095000BD0129C0809108028093BB0085EC809383
:10096000BC0064CF9091070280910602981758F559
:10097000E091070281E08E0F80930702F0E0EA51D8
:10098000FE4F8081E9CFE091070281E08E0F8093D6
:1009900007028091BB00F0E0EA51FE4F8083909106
:1009A0000702809106029817C8F285E8D8CFE09137
:1009B000070281E08E0F809307028091BB00F0E078
:1009C000EA51FE4F80838091E50181115CCF81E087
:1009D0008093E40184EA8093BC001092E30126CF67
:1009E00085EC8093BC001092E3018091E10180329C
:1009F00030F4E091E101F0E0EF53FE4F108260919E
:100A0000E10170E0E091BF01F091C00181EC91E063
:100A100009951092E1010ACF1092E20134CF1F92A2
:100A20000F920FB60F9211242F933F938F939F93A2
:100A3000AF93BF9380914E0190914F01A0915001CF
:100A4000B091510130914D0123E0230F2D3758F51E
:100A50000196A11DB11D20934D0180934E019093ED
:100A60004F01A0935001B093510180915201909198
:100A70005301A0915401B09155010196A11DB11DE2
:100A80008093520190935301A0935401B093550168
:100A9000BF91AF919F918F913F912F910F900FBE7A
:100AA0000F901F90189526E8230F0296A11DB11DE7
:100AB000D2CF1F920F920FB60F9211242F933F9314
:100AC0004F935F936F937F938F939F93AF93BF9356
:100AD000EF93FF9385E192E00E949202FF91EF91E4
:100AE000BF91AF919F918F917F916F915F914F9146
:100AF0003F912F910F900FBE0F901F9018951F924E
:100B00000F920FB60F9211242F938F939F93EF9311
:100B1000FF93E0912502F09126028081E0912B0263
:100B2000F0912C0282FD1BC0908180912E028F5F7C
:100B30008F7320912F02821741F0E0912E02F0E096
:100B4000EB5EFD4F958F80932E02FF91EF919F9169
:100B50008F912F910F900FBE0F901F90189580814D
:100B6000F4CFE9E0F2E01382128288EE93E0A0E095
:100B7000B0E084839583A683B7832CE031E0318392
:100B80002083E5E1F2E01382128284839583A683B9
:100B9000B7838EE191E09183808385EC90E0958727
:100BA000848784EC90E09787868780EC90E0918B37
:100BB000808B81EC90E0938B828B82EC90E0958B24
:100BC000848B86EC90E0978B868B118E128E138E21
:100BD000148EE2EBF2E01382128280E391E09183C3
:100BE000808387E2848380E1818782E08287138625
:100BF0000895CF93DF93CDB7DEB7A1970FB6F894E2
:100C0000DEBF0FBECDBF789484B5826084BD84B54D
:100C1000816084BD85B5826085BD85B5816085BDF7
:100C200080916E00816080936E00109281008091AF
:100C30008100826080938100809181008160809337
:100C40008100809180008160809380008091B1005C
:100C500084608093B1008091B00081608093B00087
:100C600080917A00846080937A0080917A0082601B
:100C700080937A0080917A00816080937A008091DD
:100C80007A00806880937A001092C10061E08BE066
:100C90000E948C0160E080E00E948C01E0912502BE
:100CA000F091260282E08083E0912102F0912202FD
:100CB0001082E0912302F09124028FEC8083109245
:100CC0002D02E0912902F0912A0286E08083E091D2
:100CD0002702F0912802808180618083E0912702C1
:100CE000F0912802808188608083E0912702F09152
:100CF0002802808180688083E0912702F091280299
:100D000080818F7D808310929801109297011092BC
:100D10009A01109299011092E30181E08093E5011C
:100D20001092E40161E082E10E94400161E083E110
:100D30000E9440018091B9008E7F8093B90080911C
:100D4000B9008D7F8093B90088E48093B80085E472
:100D50008093BC0088EB90E09093BC018093BB0132
:100D600089EB90E09093C0018093BF011092B7028D
:100D70008091BC02823018F098E09093B702809383
:100D8000BA0262E370E080E090E00E94E2016091CC
:100D9000BD0282EB92E00E94210368EE73E080E0E6
:100DA00090E00E94E20160E382EB92E00E948903FE
:100DB0000BE416E4C8010197F1F760E382EB92E0DF
:100DC0000E948903C8010197F1F760E382EB92E08A
:100DD0000E94890383E592E00197F1F760E282EBDC
:100DE00092E00E9489036091B702606240E082EB6A
:100DF00092E00E94A20384E08093B80240E06CE09D
:100E000082EB92E00E94A20340E061E082EB92E07C
:100E10000E94A2030BE31FE1C8010197F1F782E0F2
:100E20008093B90240E066E082EB92E00E94A20368
:100E300040E062E082EB92E00E94A203C8010197C9
:100E4000F1F788E08093BD0260E082EB92E00E94BF
:100E5000210380E00E94B9034BE050E068E371E0B9
:100E600082EB92E00E94140288248A9483E0982EF8
:100E7000A12CB12C9AE0C92ED12CE12CF12C20E030
:100E8000622E20E0722E80E480937C0080917A00B4
:100E9000806480937A0080917A0086FDFCCF8091F7
:100EA0007800A0917900BA2FA82F2AE030E00E94A4
:100EB0007B08A50194010E942B0819012A01309397
:100EC0004C0120934B0181E00E94B90357FE62C0A0
:100ED00041E06DE282EB92E00E94A20322273327D9
:100EE000A901221933094409550919A28E010F5D80
:100EF0001F4FCA01B901A70196010E944A08605D0F
:100F0000F80162938F01211531054105510589F7DB
:100F10000115110561F001900020E9F73197AF014B
:100F2000401B510BB80182EB92E00E94140244E096
:100F300050E064E471E082EB92E00E941402A09120
:100F40004B01B0914C012FEF30E00E947B08A701CC
:100F500096010E942B08522E432E022F132F10931E
:100F60004C0100934B0161E08BE00E948C01011564
:100F7000110531F560E08BE00E94400161147104BD
:100F800009F481CF0E947E02882309F47CCF0E945D
:100F9000000079CFA201910119A28E010F5D1F4FB0
:100FA000CA01B901A70196010E944A08605DF801D3
:100FB00062938F01211531054105510589F7A8CFAD
:100FC0000F3F110511F461E0D6CFEFEAF0E0849114
:100FD000833029F140F48130C1F08230D9F00038FB
:100FE00011058CF7C7CF873031F1883061F184303B
:100FF000B1F780918000806280938000852D942DD0
:1010000090938B0080938A00B9CF84B5806884BDAB
:1010100057BCB4CF84B5806284BD58BCAFCF80913B
:101020008000806880938000852D942D90938900A6
:1010300080938800A3CF8091B00080688093B00037
:101040005092B3009BCF8091B00080628093B0003B
:101050005092B40093CF052E97FB1EF400940E948B
:10106000420857FD07D00E944A0807FC03D04EF4FF
:101070000C94420850954095309521953F4F4F4F25
:101080005F4F089590958095709561957F4F8F4F34
:101090009F4F0895A1E21A2EAA1BBB1BFD010DC094
:1010A000AA1FBB1FEE1FFF1FA217B307E407F50718
:1010B00020F0A21BB30BE40BF50B661F771F881FF4
:1010C000991F1A9469F760957095809590959B018A
:1010D000AC01BD01CF010895A29FB001B39FC00133
:1010E000A39F700D811D1124911DB29F700D811D54
:1010F0001124911D08950E946C08B7FF0895821B6A
:10110000930B0895EE0FFF1F0590F491E02D0994C5
:04111000F894FFCF81
:101114000000400014005400000000001101E4002D
:101124008603BA00DD00CA00BB0000000000B40260
:101134001402410201037202500264020000000022
:10114400EA031402860385034272696768746E6554
:0A11540073733A00202020200000F1
:00000001FF
