:100000000C9462000C948A000C948A000C948A0070
:100010000C948A000C948A000C948A000C948A0038
:100020000C948A000C948A000C948A000C948A0028
:100030000C948A000C948A000C948A000C948A0018
:100040000C943F050C948A000C94AF050C94890520
:100050000C948A000C948A000C948A000C948A00F8
:100060000C9420040C948A00000000002400270057
:100070002A000000000023002600290000000000E4
:10008000250028002B0004040404040404040202D4
:100090000202020203030303030301020408102007
:1000A0004080010204081020010204081020000012
:1000B0000008000201000003040700000000000027
:1000C0000000E10511241FBECFEFD8E0DEBFCDBF99
:1000D00011E0A0E0B1E0EEE3F0E102C005900D9286
:1000E000AA34B107D9F722E0AAE4B1E001C01D9219
:1000F000A23CB207E1F710E0C2E6D0E004C02197CD
:10010000FE010E941708C136D107C9F70E942906CF
:100110000C941D080C94000085ED8093BC00809128
:10012000BC0084FDFCCF1092E70108952091C1012D
:10013000260F3327331F21323105ECF42091E701DC
:10014000FC0190E080E0243069F082E00895A09105
:10015000C1012191AC0141565E4FA40FB52FB11DD5
:100160002C930196861798F38091C101680F6093D4
:10017000C10180E0089581E00895089508950895EB
:10018000E0919C0180919B01E81730F4F0E0E55884
:10019000FE4F808190E008958FEF9FEF089590913A
:1001A0009C0180919B012FEF3FEF981748F4E92FB6
:1001B000F0E0E558FE4F208130E09F5F90939C0176
:1001C000C901089580919B0190919C01891B990B15
:1001D0000895CF92DF92EF92FF920F931F93CF93E8
:1001E000DF937C01CB018A0120917A01222389F0DF
:1001F000EB016B01C40ED51ECC15DD0569F06991CC
:10020000D701ED91FC910190F081E02DC701099596
:10021000F3CF642F0E949600C801DF91CF911F9108
:100220000F91FF90EF90DF90CF900895CF93DF93E1
:100230001F92CDB7DEB7698320917A012223F9F0AE
:1002400020919D01203258F021E030E0FC01338301
:10025000228390E080E00F90DF91CF91089580910C
:100260009E01E82FF0E0E65AFE4F998190838F5F60
:1002700080939E0180939D0181E090E0ECCF61E04E
:10028000CE0101960E949600F7CF833081F028F4CA
:10029000813099F08230A9F008958730A9F0883034
:1002A000C9F08430B1F4809180008F7D03C08091CB
:1002B00080008F7780938000089584B58F7784BD08
:1002C000089584B58F7DFBCF8091B0008F778093A8
:1002D000B00008958091B0008F7DF9CFCF93DF9368
:1002E000282F30E0F901E255FF4F8491F901E656DD
:1002F000FF4FD491F901EA57FF4FC491CC2389F005
:1003000081110E944501EC2FF0E0EE0FFF1FE45831
:10031000FF4FA591B4918FB7F894EC91DE2BDC934D
:100320008FBFDF91CF9108953FB7F8948091560128
:1003300090915701A0915801B091590126B5A89B01
:1003400005C02F3F19F00196A11DB11D3FBFBA2F67
:10035000A92F982F8827BC01CD01620F711D811D27
:10036000911D42E0660F771F881F991F4A95D1F7AC
:1003700008958F929F92AF92BF92CF92DF92EF92A9
:10038000FF924B015C010E9494016B017C010E9471
:1003900094016C197D098E099F09683E734081059F
:1003A0009105A8F321E0821A9108A108B10888EE0E
:1003B000C80E83E0D81EE11CF11C81149104A10435
:1003C000B10429F7FF90EF90DF90CF90BF90AF90EE
:1003D0009F908F900895AF92BF92CF92DF92EF924D
:1003E000FF920F931F93CF93DF936C017B018B01DF
:1003F000040F151FEB015E01AE18BF08C017D1072F
:1004000059F06991D601ED91FC910190F081E02DB8
:10041000C6010995892B79F7C501DF91CF911F910D
:100420000F91FF90EF90DF90CF90BF90AF90089525
:10043000FC01538D448D252F30E0842F90E0821BEA
:10044000930B541710F0CF96089501970895FC016F
:10045000918D828D981761F0A28DAE0FBF2FB11DC7
:100460005D968C91928D9F5F9F73928F90E008951F
:100470008FEF9FEF0895FC01918D828D981731F0D9
:10048000828DE80FF11D858D90E008958FEF9FEF2D
:100490000895FC01918D228D892F90E0805C9F4F03
:1004A000821B91098F739927089589E192E00E9438
:1004B000490221E0892B09F420E0822F089580E091
:1004C00090E0892B29F00E94550281110C940000C4
:1004D0000895FC01A48DA80FB92FB11DA35ABF4FD9
:1004E0002C91848D90E001968F739927848FA68933
:1004F000B7892C93A089B1898C91837080648C9387
:10050000938D848D981306C00288F389E02D808135
:100510008F7D80830895EF92FF920F931F93CF9367
:10052000DF93EC0181E0888F9B8D8C8D98131AC02E
:10053000E889F989808185FF15C09FB7F894EE8915
:10054000FF896083E889F989808183708064808372
:100550009FBF81E090E0DF91CF911F910F91FF90BD
:10056000EF900895F62E0B8D10E00F5F1F4F0F7365
:100570001127E02E8C8D8E110CC00FB607FCFACF20
:10058000E889F989808185FFF5CFCE010E94690253
:10059000F1CFEB8DEC0FFD2FF11DE35AFF4FF082F1
:1005A0009FB7F8940B8FEA89FB8980818062CFCF57
:1005B000CF93DF93EC01888D8823B9F0AA89BB899A
:1005C000E889F9898C9185FD03C0808186FD0DC085
:1005D0000FB607FCF7CF8C9185FFF2CF808185FFA6
:1005E000EDCFCE010E946902E9CFDF91CF9108954E
:1005F000CF93FC01C48121E020937A01C0934A018A
:1006000010929E0110929D018385682B8DE092E0EF
:100610000E94160190919D01913208F03FC0809197
:10062000E7018111FCCF82E08093E70181E08093B4
:10063000E9018FEF8093E60110920B0290930A027A
:10064000AAE5B1E0EAEEF1E080E098132FC0109245
:100650000C0280910C02CC0FC82BC0930C0280912D
:10066000E801813039F51092E80180910C02809305
:10067000BB008091BC0083FDF8CF85EC8093BC006B
:100680008091E7018230E1F38091E6018F3F31F004
:100690008091E601803211F08091E60110929E0176
:1006A00010929D0110927A01CF9108952D9121937E
:1006B0008F5FCBCF85EEE2CF089590E080E0089584
:1006C0008F929F92AF92BF92EF92FF920F931F93E0
:1006D000CF93DF93CDB7DEB7A1970FB6F894DEBF07
:1006E0000FBECDBF7C01FA01CB0119A2223008F464
:1006F0002AE08E010F5D1F4F822E912CB12CA12C70
:10070000BF01A50194010E94F507F901CA016A30F1
:1007100074F5605DD8016E938D01232B242B252B5E
:1007200079F790E080E0109789F0FD0101900020BA
:10073000E9F73197AF014A1B5B0BD701ED91FC91B3
:100740000280F381E02DB801C7010995A1960FB68B
:10075000F894DEBF0FBECDBFDF91CF911F910F91F7
:10076000FF90EF90BF90AF909F908F900895695C3D
:10077000D1CF0F931F93CF938C01C62F0E94F80205
:100780006C2F6460C8010E94F8026C2F6B7FC80157
:100790000E94F80283EC90E00197F1F7CF911F914E
:1007A0000F9108950F931F93CF93DF938C01D62F52
:1007B000C42F607F642B0E94B90380E1D89FB001F1
:1007C00011246C2BC801DF91CF911F910F910C94D4
:1007D000B903CF93DF93CDB7DEB728970FB6F89460
:1007E000DEBF0FBECDBF98E0E0E0F1E0DE01119684
:1007F00001900D929A95E1F79091BE02981708F436
:100800008FEF90E0880F991F21E030E02C0F3D1F03
:10081000820F931FFC016081606840E086EB92E0EC
:1008200028960FB6F894DEBF0FBECDBFDF91CF91F3
:100830000C94D20341E00E94D20381E090E008953D
:100840001F920F920FB60F9211242F933F934F9345
:100850005F936F937F938F939F93AF93BF93EF9328
:10086000FF938091B900887F803609F44AC0F0F583
:10087000883209F4A7C018F5803109F49BC0B8F498
:10088000882309F4F9C0883009F494C0FF91EF91EE
:10089000BF91AF919F918F917F916F915F914F9198
:1008A0003F912F910F900FBE0F901F901895883198
:1008B00009F488C0803251F78093E60114C0803477
:1008C00009F49DC040F48033B9F38833F9F680937E
:1008D000E60185ECB0C0803509F485C0883509F49F
:1008E00096C0883499F60E948C00D0CF883909F4DC
:1008F0008CC038F5883729F050F4883611F08037ED
:1009000029F683E08093E7011092E50157C088380B
:1009100009F47BC0803919F0803809F0B7CF809195
:10092000E501803208F071C0E091E50181E08E0FB1
:100930008093E5018091BB00F0E0EB53FE4F808394
:100940003DC0803B39F0E0F4803A09F479C0883A40
:1009500009F09CCF84E08093E7011092C2011092CD
:10096000C101E091BF01F091C00109958091C101E1
:1009700081110FC081E08093C10110929F0109C0D5
:10098000803C09F4A6CF883C09F4A3CF883B09F04A
:100990007DCFE091C20181E08E0F8093C201F0E033
:1009A000E156FE4F80818093BB009091C2018091FF
:1009B000C10129C080910C028093BB0085EC80931B
:1009C000BC0064CF90910B0280910A02981758F5F1
:1009D000E0910B0281E08E0F80930B02F0E0E65174
:1009E000FE4F8081E9CFE0910B0281E08E0F809372
:1009F0000B028091BB00F0E0E651FE4F80839091A6
:100A00000B0280910A029817C8F285E8D8CFE091CE
:100A10000B0281E08E0F80930B028091BB00F0E00F
:100A2000E651FE4F80838091E90181115CCF81E026
:100A30008093E80184EA8093BC001092E70126CFFE
:100A400085EC8093BC001092E7018091E501803233
:100A500030F4E091E501F0E0EB53FE4F108260913D
:100A6000E50170E0E091C301F091C40185EC91E0F3
:100A700009951092E5010ACF1092E60134CF1F923A
:100A80000F920FB60F9211242F933F938F939F9342
:100A9000AF93BF938091520190915301A091540163
:100AA000B09155013091510123E0230F2D3758F5B6
:100AB0000196A11DB11D2093510180935201909385
:100AC0005301A0935401B093550180915601909128
:100AD0005701A0915801B09159010196A11DB11D76
:100AE0008093560190935701A0935801B0935901F8
:100AF000BF91AF919F918F913F912F910F900FBE1A
:100B00000F901F90189526E8230F0296A11DB11D86
:100B1000D2CF1F920F920FB60F9211242F933F93B3
:100B20004F935F936F937F938F939F93AF93BF93F5
:100B3000EF93FF9389E192E00E946902FF91EF91A8
:100B4000BF91AF919F918F917F916F915F914F91E5
:100B50003F912F910F900FBE0F901F9018951F92ED
:100B60000F920FB60F9211242F938F939F93EF93B1
:100B7000FF93E0912902F0912A028081E0912F02F7
:100B8000F091300282FD1BC09081809132028F5F14
:100B90008F7320913302821741F0E0913202F0E02E
:100BA000E75EFD4F958F80933202FF91EF919F9109
:100BB0008F912F910F900FBE0F901F9018958081ED
:100BC000F4CFEDE0F2E01382128288EE93E0A0E031
:100BD000B0E084839583A683B7832CE031E0318332
:100BE0002083E9E1F2E01382128284839583A68355
:100BF000B7838EE191E09183808385EC90E09587C7
:100C0000848784EC90E09787868780EC90E0918BD6
:100C1000808B81EC90E0938B828B82EC90E0958BC3
:100C2000848B86EC90E0978B868B118E128E138EC0
:100C3000148EE6EBF2E01382128280E391E091835E
:100C4000808387E2848380E1818782E082871386C4
:100C50000895789484B5826084BD84B5816084BD34
:100C600085B5826085BD85B5816085BD80916E004A
:100C7000816080936E00109281008091810082607B
:100C800080938100809181008160809381008091B8
:100C900080008160809380008091B10084608093A7
:100CA000B1008091B00081608093B00080917A00A3
:100CB000846080937A0080917A00826080937A00C9
:100CC00080917A00816080937A0080917A008068B8
:100CD00080937A001092C100C6EAD0E0FE01249110
:100CE00002E910E0F8018491882399F090E0880FE0
:100CF000991FFC01E859FF4FA591B491FC01E458FC
:100D0000FF4F859194918FB7F8949C91292B2C9348
:100D10008FBFE0912902F0912A0282E08083E09166
:100D20002502F09126021082E0912702F09128021C
:100D30008FEC808310923102E0912D02F0912E020F
:100D400086E08083E0912B02F0912C02808180610B
:100D50008083E0912B02F0912C0280818860808357
:100D6000E0912B02F0912C02808180688083E091D9
:100D70002B02F0912C0280818F7D808310929C0148
:100D800010929B0110929E0110929D011092E7011A
:100D900081E08093E9011092E80182E10E946E01F6
:100DA00083E10E946E018091B9008E7F8093B9002B
:100DB0008091B9008D7F8093B90088E48093B8005A
:100DC00085E48093BC008DEB90E09093C00180930C
:100DD000BF018EEB90E09093C4018093C301109209
:100DE000BB028091C002823018F098E09093BB0261
:100DF0008093BE0262E370E080E090E00E94B9015F
:100E00006091C10286EB92E00E94F80268EE73E006
:100E100080E090E00E94B90160E386EB92E00E94DE
:100E2000B9039BE4E92E96E4F92EC7010197F1F787
:100E300060E386EB92E00E94B903C7010197F1F7E6
:100E400060E386EB92E00E94B90383E592E00197AC
:100E5000F1F760E286EB92E00E94B9036091BB0279
:100E6000606240E086EB92E00E94D20384E08093CF
:100E7000BC0240E06CE086EB92E00E94D20340E0CE
:100E800061E086EB92E00E94D2032BE3E22E2FE199
:100E9000F22EC7010197F1F782E08093BD0240E096
:100EA00066E086EB92E00E94D20340E062E086EBCF
:100EB00092E00E94D203C7010197F1F788E0809386
:100EC000C10260E086EB92E00E94F8023AEBE32E6A
:100ED00030E0F32E40E0C42E40E0D42EAA24A394A8
:100EE000B12C80E00E94E90340E150E068E371E04A
:100EF00086EB92E00E94EB01F7018491FE01949051
:100F0000F801849050E040E0882099F081110E941F
:100F10004501E82DF0E0EE0FFF1FEE58FF4FA591C1
:100F2000B4918C91982291E080E009F490E0492FEF
:100F3000582F5093500140934F01052E000C660B23
:100F4000770B2AE089E192E00E94600380914F01D3
:100F500090915001019799F580914D0190914E012A
:100F6000892B69F540904B0150904C01FFEF4F1ACF
:100F70005F0A50924C0140924B0181E00E94E903CC
:100F8000052C000C660877082AE0B301A20177FE61
:100F90000EC041E06DE286EB92E00E94D20344274E
:100FA0005527BA0144195509660977092AE086EBE5
:100FB00092E00E946003B0924E01A0924D01809198
:100FC0004F0190915001892B21F410924E01109203
:100FD0004D01C114D10409F484CF0E945502882325
:100FE00009F47FCF0E9400007CCFA1E21A2EAA1B39
:100FF000BB1BFD010DC0AA1FBB1FEE1FFF1FA217C9
:10100000B307E407F50720F0A21BB30BE40BF50BC5
:10101000661F771F881F991F1A9469F7609570954E
:10102000809590959B01AC01BD01CF010895EE0F15
:0E103000FF1F0590F491E02D0994F894FFCF76
:10103E000000400014005400000000001601E900FA
:10104E005D03BF00E200CF00C000000000008B0275
:10105E00EB011802D802490227023B0200000000F1
:10106E001A04EB015D035C03427574746F6E2050BD
:0A107E007265737365733A20000079
:00000001FF
