:100000000C9462000C948A000C948A000C948A0070
:100010000C948A000C948A000C948A000C948A0038
:100020000C948A000C948A000C948A000C940904A5
:100030000C948A000C948A000C948A000C948A0018
:100040000C9467030C948A000C94D7030C94B103AE
:100050000C948A000C948A000C948A000C948A00F8
:100060000C948A000C948A000000000023002600F3
:10007000290000000000240027002A0000000000E2
:10008000250028002B0004040404040404040202D4
:100090000202020203030303030301020408102007
:1000A0004080010204081020010204081020000012
:1000B0000008000201000003040700000000000027
:1000C00000000A0511241FBECFEFD8E0DEBFCDBF70
:1000D00011E0A0E0B1E0EAEEF0E102C005900D927F
:1000E000AE31B107D9F721E0AEE1B1E001C01D9218
:1000F000A53FB207E1F710E0C2E6D0E004C02197C7
:10010000FE010E946D08C136D107C9F70E9467053C
:100110000C9473080C9400008F929F92AF92BF9240
:10012000FF920F931F93CF93DF93F090F2012BE098
:100130002F1508F44CC02091F40108E512E0021BD1
:10014000110927FD1395000F111F000F111F20919A
:10015000F301C8E8D0E0C21BD10927FDD395CC0F2D
:10016000DD1FCC0FDD1F4E010D2E000CAA08BB08B1
:100170009801012E000C440B550B281939094A0926
:100180005B09DC010E94F20624EB30E040E050E025
:100190000E94C806820E931EA41EB51E8C169D06D4
:1001A0002CF0E801801691060CF4E4012297CC0FA4
:1001B000DD1F2FB7F8948F2D90E0FC01EE0FFF1F8D
:1001C000E80FF91FE353FE4FD283C1832FBFDF91A6
:1001D000CF911F910F91FF90BF90AF909F908F9004
:1001E000089590E0FC01E255FF4F2491FC01E65692
:1001F000FF4F3491FC01EA57FF4FE491EE23C9F021
:10020000222339F0233001F1A8F4213019F12230F2
:1002100029F1F0E0EE0FFF1FE458FF4FA591B491D4
:100220008FB7F894EC91611126C030953E233C9332
:100230008FBF08952730A9F02830C9F0243049F73E
:10024000809180008F7D03C0809180008F778093A4
:100250008000DFCF84B58F7784BDDBCF84B58F7D01
:10026000FBCF8091B0008F778093B000D2CF809188
:10027000B0008F7DF9CF3E2BDACFCF93DF9390E0A4
:10028000FC01E656FF4F24918A579F4FFC01849151
:100290008823D1F090E0880F991FFC01EE58FF4FA2
:1002A000A591B491FC01E458FF4FC591D49161111F
:1002B0000EC09FB7F8948C91E22FE0958E238C931B
:1002C0002881E223E8839FBFDF91CF9108958FB704
:1002D000F894EC91E22BEC938FBFF6CF3FB7F894F4
:1002E00080912C0190912D01A0912E01B0912F01B0
:1002F00026B5A89B05C02F3F19F00196A11DB11D81
:100300003FBFBA2FA92F982F8827BC01CD01620FBC
:10031000711D811D911D42E0660F771F881F991F77
:100320004A95D1F70895AF92BF92CF92DF92EF92A4
:10033000FF920F931F93CF93DF936C017B018B018F
:10034000040F151FEB015E01AE18BF08C017D107DF
:1003500059F06991D601ED91FC910190F081E02D69
:10036000C6010995892B79F7C501DF91CF911F91BE
:100370000F91FF90EF90DF90CF90BF90AF900895D6
:10038000FC01538D448D252F30E0842F90E0821B9B
:10039000930B541710F0CF96089501970895FC0120
:1003A000918D828D981761F0A28DAE0FBF2FB11D78
:1003B0005D968C91928D9F5F9F73928F90E00895D0
:1003C0008FEF9FEF0895FC01918D828D981731F08A
:1003D000828DE80FF11D858D90E008958FEF9FEFDE
:1003E0000895FC01918D228D892F90E0805C9F4FB4
:1003F000821B91098F739927089580E391E00E94F1
:10040000F10121E0892B09F420E0822F089580E09A
:1004100090E0892B29F00E94FD0181110C940000CD
:100420000895FC01A48DA80FB92FB11DA35ABF4F89
:100430002C91848D90E001968F739927848FA689E3
:10044000B7892C93A089B1898C91837080648C9337
:10045000938D848D981306C00288F389E02D8081E6
:100460008F7D80830895EF92FF920F931F93CF9318
:10047000DF93EC0181E0888F9B8D8C8D98131AC0DF
:10048000E889F989808185FF15C09FB7F894EE89C6
:10049000FF896083E889F989808183708064808323
:1004A0009FBF81E090E0DF91CF911F910F91FF906E
:1004B000EF900895F62E0B8D10E00F5F1F4F0F7316
:1004C0001127E02E8C8D8E110CC00FB607FCFACFD1
:1004D000E889F989808185FFF5CFCE010E9411025C
:1004E000F1CFEB8DEC0FFD2FF11DE35AFF4FF082A2
:1004F0009FB7F8940B8FEA89FB8980818062CFCF08
:10050000CF93DF93EC01888D8823B9F0AA89BB894A
:10051000E889F9898C9185FD03C0808186FD0DC035
:100520000FB607FCF7CF8C9185FFF2CF808185FF56
:10053000EDCFCE010E941102E9CFDF91CF91089556
:10054000FC0101900020E9F73197AF01481B590BDE
:10055000BC0180E391E00C9493018F929F92AF9243
:10056000BF920F931F93CF93DF93CDB7DEB7A197C1
:100570000FB6F894DEBF0FBECDBF19A2423008F40B
:100580004AE08E010F5D1F4F842E912CB12CA12CBF
:10059000A50194010E94FA06E62FB901CA01EA30CA
:1005A000F4F4E05DD801EE938D01232B242B252B51
:1005B00079F790E080E0109719F0CD010E94A00239
:1005C000A1960FB6F894DEBF0FBECDBFDF91CF91DD
:1005D0001F910F91BF90AF909F908F900895E95C0D
:1005E000E1CF8F929F92AF92BF92CF92DF92EF9224
:1005F000FF920F931F9360E08BE00E94F1008FE069
:1006000090E00197F1F761E08BE00E94F10083E256
:1006100090E00197F1F760E08BE00E94F100E6EADC
:10062000F0E06491E2E9F0E0E491F0E0EE0FFF1F0A
:10063000E859FF4F8591949100E412E42FE030E0F7
:10064000462F0E94C5046B017C01C114D104E10452
:10065000F10439F08FEFC81AD80AE80AF80A8FE0D7
:10066000F822C701B60195958795779567950E9401
:10067000D5072DEC3CEC48EE51E40E942B070E947C
:100680009D074B015C0180921F0190922001A09276
:100690002101B0922201C701B60124E930E040E017
:1006A00050E00E94C8062093230130932401409318
:1006B000250150932601C4011F910F91FF90EF90E7
:1006C000DF90CF90BF90AF909F908F9008951F9232
:1006D0000F920FB60F9211242F933F938F939F93F6
:1006E000AF93BF938091280190912901A0912A0195
:1006F000B0912B013091270123E0230F2D3758F5BE
:100700000196A11DB11D209327018093280190938C
:100710002901A0932A01B0932B0180912C01909183
:100720002D01A0912E01B0912F010196A11DB11DA7
:1007300080932C0190932D01A0932E01B0932F0153
:10074000BF91AF919F918F913F912F910F900FBECD
:100750000F901F90189526E8230F0296A11DB11D3A
:10076000D2CF1F920F920FB60F9211242F933F9367
:100770004F935F936F937F938F939F93AF93BF93A9
:10078000EF93FF9380E391E00E941102FF91EF91BC
:10079000BF91AF919F918F917F916F915F914F9199
:1007A0003F912F910F900FBE0F901F9018951F92A1
:1007B0000F920FB60F9211242F938F939F93EF9365
:1007C000FF93E0914001F09141018081E091460169
:1007D000F091470182FD1BC09081809149018F5F9C
:1007E0008F7320914A01821741F0E0914901F0E0B6
:1007F000E05DFE4F958F80934901FF91EF919F91AE
:100800008F912F910F900FBE0F901F9018958081A0
:10081000F4CF1F920F920FB60F9211242F933F9394
:100820004F935F936F937F938F939F93AF93BF93F8
:10083000CF93DF93EF93FF9380911E01C091F1015D
:10084000D0E087FF24C01092850010928400809130
:100850001E018F5F80931E0180911E01082E000CE7
:10086000990B8C179D0724F480911E018C30C4F1E4
:100870008091840090918500049680349C4908F40E
:100880007AC08091840090918500049676C0809112
:100890001E01082E000C990B8C179D07C4F6E091E1
:1008A0001E018E2FEE0F990BFC01EE0FFF1FE80FBC
:1008B000F91FE353FE4F808186FFC9CFE0911E01EF
:1008C0008E2FEE0F990BFC01EE0FFF1FE80FF91FA3
:1008D000E353FE4F808160E08F730E94F100B7CF39
:1008E0002091840030918500E0911E018E2FEE0F43
:1008F000990BFC01EE0FFF1FE80FF91FE353FE4FAA
:1009000081819281820F931F909389008093880048
:10091000E0911E018E2FEE0F990BFC01EE0FFF1FD1
:10092000E80FF91FE353FE4F808186FF11C0E0916D
:100930001E018E2FEE0F990BFC01EE0FFF1FE80F2B
:10094000F91FE353FE4F808161E08F730E94F10035
:10095000FF91EF91DF91CF91BF91AF919F918F91D7
:100960007F916F915F914F913F912F910F900FBEAB
:100970000F901F90189580E49CE9909389008093D4
:1009800088008FEF80931E01E3CFCF92DF92EF922A
:10099000FF920F931F93E82FF92F05C00150110903
:1009A0002109310961F1908196239417B9F305C0AB
:1009B000015011092109310911F1908196239413F5
:1009C000F7CFC12CD12CE12CF12C0AC08FEFC81A23
:1009D000D80AE80AF80A0C151D052E053F0579F01E
:1009E00080818623841791F36C2D7D2D8E2D9F2D74
:1009F0001F910F91FF90EF90DF90CF90089560E0EE
:100A000070E080E090E01F910F91FF90EF90DF90F9
:100A1000CF900895109233011092320188EE93E046
:100A2000A0E0B0E08093340190933501A0933601AB
:100A3000B093370184E091E09093310180933001CD
:100A400085EC90E090933D0180933C0184EC90E034
:100A500090933F0180933E0180EC90E090934101A0
:100A60008093400181EC90E0909343018093420198
:100A700082EC90E0909345018093440186EC90E0F5
:100A800090934701809346011092490110924A01C8
:100A900010924B0110924C018091F1018C3098F42E
:100AA00091E0980F9093F1018093F20190E0FC01A6
:100AB000EE0FFF1FE80FF91FE353FE4F88EB9BE09B
:100AC0009283818308958FEF8093F2010895789443
:100AD00084B5826084BD84B5816084BD85B5826043
:100AE00085BD85B5816085BD80916E0081608093F4
:100AF0006E0010928100809181008260809381005D
:100B0000809181008160809381008091800081606C
:100B1000809380008091B10084608093B1008091C7
:100B2000B00081608093B00080917A0084608093EF
:100B30007A0080917A00826080937A0080917A00B6
:100B4000816080937A0080917A00806880937A0037
:100B50001092C100E0914001F091410182E0808358
:100B6000E0913C01F0913D011082E0913E01F09155
:100B70003F018FEC808310924801E0914401F09195
:100B8000450186E08083E0914201F091430180813C
:100B900080618083E0914201F0914301808188600F
:100BA0008083E0914201F0914301808180688083DD
:100BB000E0914201F091430180818F7D808361E06B
:100BC0008BE00E943D0160E08CE00E943D0180913D
:100BD000F2018C3008F051C061E08AE00E943D01D2
:100BE0008091F201282F30E0F901EE0FFF1FE20F94
:100BF000F31FE353FE4F9081907C9A609083109294
:100C0000F3011092F4012CE0622F0E946108829F90
:100C1000B001112430E020E0AB01420F531FFA0174
:100C2000EE0FFF1FE40FF51FE353FE4F908196FD7B
:100C300016C02F5F3F4F2C30310571F781110FC067
:100C40001092800082E080938100109285001092C3
:100C50008400B19A80916F00826080936F00E09170
:100C6000F2018E2F90E0FC01EE0FFF1FE80FF91F3D
:100C7000E353FE4F808180648083C0E0D0E00E9417
:100C8000F102C0902301D0902401E0902501F09062
:100C900026014AE0C701B601F7FE0DC06DE280E310
:100CA00091E00E94330266277727CB016C197D09FA
:100CB0008E099F094AE00E94AD0282E191E00E9404
:100CC000A002C0901F01D0902001E0902101F0907F
:100CD00022014AE0C701B601F7FE0DC06DE280E3D4
:100CE00091E00E94330266277727CB016C197D09BA
:100CF0008E099F094AE00E94AD0287E191E00E94BF
:100D0000A0028AE191E00E94A0020E946E014B01C4
:100D10005C018AEFC82ED12CE12CF12C0E946E01CF
:100D2000681979098A099B09683E73408105910514
:100D3000A8F321E0C21AD108E108F10888EE880E74
:100D400083E0981EA11CB11CC114D104E104F1047C
:100D500029F70E94F10205977CF481EA90E00E9455
:100D60008C00209709F48BCF0E94FD01882309F4A1
:100D700086CF0E94000083CF0E94F1020B971CF0E7
:100D800086E490E0ECCF0E94F1028AE590E0E7CFA4
:100D9000052E97FB1EF400940E94DF0657FD07D036
:100DA0000E94FA0607FC03D04EF40C94DF0650951F
:100DB0004095309521953F4F4F4F5F4F0895909547
:100DC0008095709561957F4F8F4F9F4F08950E943A
:100DD0001C07A59F900DB49F900DA49F800D911DA1
:100DE00011240895B7FF0C94E7060E94E706821BC2
:100DF000930B0895A1E21A2EAA1BBB1BFD010DC087
:100E0000AA1FBB1FEE1FFF1FA217B307E407F507BA
:100E100020F0A21BB30BE40BF50B661F771F881F96
:100E2000991F1A9469F760957095809590959B012C
:100E3000AC01BD01CF010895A29FB001B39FC001D5
:100E4000A39F700D811D1124911DB29F700D811DF6
:100E50001124911D08950E943F070C9427080E94B9
:100E6000200858F00E94190840F029F45F3F29F04B
:100E70000C94100851110C945B080C9416080E94F5
:100E8000380868F39923B1F3552391F3951B550B5B
:100E9000BB27AA2762177307840738F09F5F5F4F4D
:100EA000220F331F441FAA1FA9F335D00E2E3AF08C
:100EB000E0E832D091505040E695001CCAF72BD0A4
:100EC000FE2F29D0660F771F881FBB1F26173707F5
:100ED0004807AB07B0E809F0BB0B802DBF01FF2727
:100EE00093585F4F3AF09E3F510578F00C941008EC
:100EF0000C945B085F3FE4F3983ED4F386957795B6
:100F00006795B795F7959F5FC9F7880F911D9695DF
:100F1000879597F90895E1E0660F771F881FBB1F3B
:100F2000621773078407BA0720F0621B730B840BE8
:100F3000BA0BEE1F88F7E09508950E94A407689405
:100F4000B1110C945B0808950E94400888F09F57E7
:100F500098F0B92F9927B751B0F0E1F0660F771FDD
:100F6000881F991F1AF0BA95C9F714C0B13091F0D3
:100F70000E945A08B1E008950C945A08672F782F00
:100F80008827B85F39F0B93FCCF386957795679598
:100F9000B395D9F73EF490958095709561957F4F04
:100FA0008F4F9F4F0895E89409C097FB3EF49095AA
:100FB0008095709561957F4F8F4F9F4F9923A9F032
:100FC000F92F96E9BB279395F695879577956795C1
:100FD000B795F111F8CFFAF4BB0F11F460FF1BC005
:100FE0006F5F7F4F8F4F9F4F16C0882311F096E998
:100FF00011C0772321F09EE8872F762F05C0662346
:1010000071F096E8862F70E060E02AF09A95660FFE
:10101000771F881FDAF7880F9695879597F90895B7
:1010200097F99F6780E870E060E008959FEF80EC9B
:10103000089500240A94161617061806090608953E
:1010400000240A9412161306140605060895092EA4
:101050000394000C11F4882352F0BB0F40F4BF2B13
:1010600011F460FF04C06F5F7F4F8F4F9F4F089553
:1010700057FD9058440F551F59F05F3F71F0479549
:10108000880F97FB991F61F09F3F79F0879508952E
:10109000121613061406551FF2CF4695F1DF08C04D
:1010A000161617061806991FF1CF8695710561056A
:1010B00008940895E894BB2766277727CB0197F912
:1010C0000895991B79E004C0991F961708F0961BA4
:1010D000881F7A95C9F780950895EE0FFF1F059038
:0A10E000F491E02D0994F894FFCF7D
:1010EA000000000033029301C0018002F101CF0128
:0E10FA00E301696E2C2000636D000D0A0000FA
:00000001FF
