:100000000C945D000C940E020C94E7010C94850096
:100010000C9485000C9485000C9485000C9485004C
:100020000C9485000C9485000C9485000C9485003C
:100030000C9485000C9485000C9485000C9485002C
:100040000C949D010C9485000C945B020C94350279
:100050000C9485000C9485000C9485000C9485000C
:100060000C9485000C9485000000000024002700FB
:100070002A0000000000250028002B0004040404CE
:100080000404040402020202020203030303030342
:10009000010204081020408001020408102001021F
:1000A00004081020000000080002010000030407FB
:1000B0000000000000000000F10311241FBECFEF7C
:1000C000D8E0DEBFCDBF11E0A0E0B1E0E0E9F8E0AC
:1000D00002C005900D92AA31B107D9F721E0AAE13B
:1000E000B1E001C01D92A13CB207E1F710E0CDE5FF
:1000F000D0E004C02197FE010E944004CC35D10716
:10010000C9F70E948D020C9446040C9400000895D7
:10011000AF92BF92CF92DF92EF92FF920F931F9315
:10012000CF93DF936C017B018B01040F151FEB0153
:100130005E01AE18BF08C017D10759F06991D6010A
:10014000ED91FC910190F081E02DC6010995892B7C
:1001500079F7C501DF91CF911F910F91FF90EF903B
:10016000DF90CF90BF90AF9008959091B70181E05C
:10017000911180E08093B7010895FC01538D448D67
:10018000252F30E0842F90E0821B930B541710F042
:10019000CF96089501970895FC01918D828D98174F
:1001A00061F0A28DAE0FBF2FB11D5D968C91928D27
:1001B0009F5F9F73928F90E008958FEF9FEF089558
:1001C000FC01918D828D981731F0828DE80FF11D21
:1001D000858D90E008958FEF9FEF0895FC01918D3C
:1001E000228D892F90E0805C9F4F821B91098F7335
:1001F000992708958AE191E00E94EE0021E0892B81
:1002000009F420E0822F089580E090E0892B29F006
:100210000E94FA0081110C9400000895FC01A48D45
:10022000A80FB92FB11DA35ABF4F2C91848D90E018
:1002300001968F739927848FA689B7892C93A089FB
:10024000B1898C91837080648C93938D848D981385
:1002500006C00288F389E02D80818F7D8083089518
:10026000EF92FF920F931F93CF93DF93EC0181E006
:10027000888F9B8D8C8D98131AC0E889F9898081AD
:1002800085FF15C09FB7F894EE89FF896083E889E0
:10029000F98980818370806480839FBF81E090E0D2
:1002A000DF91CF911F910F91FF90EF900895F62E5F
:1002B0000B8D10E00F5F1F4F0F731127E02E8C8DF9
:1002C0008E110CC00FB607FCFACFE889F98980813E
:1002D00085FFF5CFCE010E940E01F1CFEB8DEC0F23
:1002E000FD2FF11DE35AFF4FF0829FB7F8940B8F5B
:1002F000EA89FB8980818062CFCFCF93DF93EC01C5
:10030000888D8823B9F0AA89BB89E889F9898C91FD
:1003100085FD03C0808186FD0DC00FB607FCF7CFB9
:100320008C9185FFF2CF808185FFEDCFCE010E94B9
:100330000E01E9CFDF91CF9108951F920F920FB672
:100340000F9211242F933F938F939F93AF93BF935B
:100350008091BD019091BE01A091BF01B091C001FB
:100360003091BC0123E0230F2D3758F50196A11DD4
:10037000B11D2093BC018093BD019093BE01A09359
:10038000BF01B093C0018091B8019091B901A091D3
:10039000BA01B091BB010196A11DB11D8093B801B6
:1003A0009093B901A093BA01B093BB01BF91AF91F3
:1003B0009F918F913F912F910F900FBE0F901F90A3
:1003C000189526E8230F0296A11DB11DD2CF1F92CA
:1003D0000F920FB60F9211242F933F934F935F9379
:1003E0006F937F938F939F93AF93BF93EF93FF93FD
:1003F000E0910201F09103010995FF91EF91BF9106
:10040000AF919F918F917F916F915F914F913F91AC
:100410002F910F900FBE0F901F9018951F920F9263
:100420000FB60F9211242F933F934F935F936F93C7
:100430007F938F939F93AF93BF93EF93FF93E0913D
:100440000001F09101010995FF91EF91BF91AF91EA
:100450009F918F917F916F915F914F913F912F91DC
:100460000F900FBE0F901F9018951F920F920FB60E
:100470000F9211242F933F934F935F936F937F932A
:100480008F939F93AF93BF93EF93FF938AE191E094
:100490000E940E01FF91EF91BF91AF919F918F91BB
:1004A0007F916F915F914F913F912F910F900FBE70
:1004B0000F901F9018951F920F920FB60F92112454
:1004C0002F938F939F93EF93FF93E0912A01F091E5
:1004D0002B018081E0913001F091310182FD1BC040
:1004E0009081809133018F5F8F7320913401821747
:1004F00041F0E0913301F0E0E65EFE4F958F80938E
:100500003301FF91EF919F918F912F910F900FBE2B
:100510000F901F9018958081F4CFCF93DF93CDB7C4
:10052000DEB7A1970FB6F894DEBF0FBECDBF7894AB
:1005300084B5826084BD84B5816084BD85B58260E8
:1005400085BD85B5816085BD80916E008160809399
:100550006E00109281008091810082608093810002
:100560008091810081608093810080918000816012
:10057000809380008091B10084608093B10080916D
:10058000B00081608093B00080917A008460809395
:100590007A0080917A00826080937A0080917A005C
:1005A000816080937A0080917A00806880937A00DD
:1005B0001092C100E0912A01F0912B0182E080832A
:1005C000E0912601F09127011082E0912801F0913D
:1005D00029018FEC808310923201E0912E01F0917D
:1005E0002F0186E08083E0912C01F0912D01808124
:1005F00080618083E0912C01F0912D0180818860E1
:100600008083E0912C01F0912D01808180688083AE
:10061000E0912C01F0912D0180818F7D80830DE987
:1006200010E0F801249179E8E72E70E0F72EF70149
:100630008491882399F090E0880F991FFC01E85974
:10064000FF4FA591B491FC01EE58FF4F8591949115
:100650008FB7F8949C91292B2C938FBFE2E9F0E09F
:100660002491EEE7F0E084918823C9F090E0880FB0
:10067000991FFC01E859FF4FA591B491FC01EE5878
:10068000FF4F459154919FB7F8943C91822F8095EC
:1006900083238C93DA01EC912E2B2C939FBF85EB57
:1006A00090E0909301018093000180916900836044
:1006B00080936900E89A21EBA22E20E0B22E3AE066
:1006C000432E512C612C712C40E0842E40E0942E5E
:1006D0002091B701F5019491F8018491F7013491CB
:1006E0003323F1F0992359F0933009F460C008F0F6
:1006F00053C0913009F461C0923009F462C0E32F15
:10070000F0E0EE0FFF1FEE58FF4FA591B4919FB799
:10071000F894211163C02C91809582238C939FBF04
:100720002091B70130E050E040E019A26E01F1E203
:10073000CF0ED11CCA01B901A30192010E941E046F
:10074000605DD6016E936D0121153105410551059E
:1007500089F7109769F0FD0101900020E9F73197C2
:10076000AF014A1B5B0BBD018AE191E00E9488004A
:1007700042E050E066E171E08AE191E00E94880089
:100780008114910409F4A4CF0E94FA00882309F48B
:100790009FCF0E9400009CCF9730B1F09830D1F0ED
:1007A000943009F0ACCF909180009F7D03C0909170
:1007B00080009F7790938000A2CF94B59F7794BDDF
:1007C0009ECF94B59F7DFBCF9091B0009F77909383
:1007D000B00095CF9091B0009F7DF9CF2C91822BE6
:1007E0009DCFEAE1F1E01382128288EE93E0A0E06F
:1007F000B0E084839583A683B78388E091E09183FA
:10080000808385EC90E09587848784EC90E09787DF
:10081000868780EC90E0918B808B81EC90E0938BCD
:10082000828B82EC90E0958B848B86EC90E0978BAA
:10083000868B118E128E138E148E0895A1E21A2EBD
:10084000AA1BBB1BFD010DC0AA1FBB1FEE1FFF1F74
:10085000A217B307E407F50720F0A21BB30BE40BC4
:10086000F50B661F771F881F991F1A9469F760950B
:100870007095809590959B01AC01BD01CF010895C5
:10088000EE0FFF1F0590F491E02D0994F894FFCF2F
:10089000870087000000000030018800BD007D0156
:0A08A000EE00CC00E0000D0A00009D
:00000001FF
