:100000000C9458000C9480000C9480000C94800098
:100010000C9480000C9480000C9480000C94800060
:100020000C9480000C9480000C9480000C94800050
:100030000C9480000C9480000C9480000C94800040
:100040000C94D4040C9480000C9444050C941E056C
:100050000C9480000C9480000C9480000C94800020
:100060000C94B5030C9480000000000025002800CB
:100070002B00040404040404040402020202020229
:10008000030303030303010204081020408001025C
:1000900004081020010204081020000000080002DB
:1000A00001000003040700000000000000007605C6
:1000B00011241FBECFEFD8E0DEBFCDBF11E0A0E01E
:1000C000B1E0EEECFEE002C005900D92A434B10761
:1000D000D9F722E0A4E4B1E001C01D92A63BB2072B
:1000E000E1F710E0C8E5D0E004C02197FE010E94CE
:1000F0005F07C735D107C9F70E94BE050C94650795
:100100000C94000090E0FC01E656FF4F2491FC01A6
:10011000EA57FF4F3491FC01EE58FF4FE491EE2374
:10012000B1F0222339F02330E9F090F4213001F1CD
:10013000223011F1F0E0EE0FFF1FE859FF4FA591BB
:10014000B4918FB7F894EC913E2B3C938FBF0895F8
:100150002730A9F02830C9F0243061F78091800061
:100160008F7D03C0809180008F7780938000E2CFE5
:1001700084B58F7784BDDECF84B58F7DFBCF809132
:10018000B0008F778093B000D5CF8091B0008F7D85
:10019000F9CF85ED8093BC008091BC0084FDFCCF3D
:1001A0001092DB0108952091B501260F3327331FEC
:1001B00021323105ECF42091DB01FC0190E080E07C
:1001C000243069F082E00895A091B5012191AC013D
:1001D0004D565E4FA40FB52FB11D2C930196861777
:1001E00098F38091B501680F6093B50180E00895A0
:1001F00081E00895089508950895E0919001809117
:100200008F01E81730F4F0E0E159FE4F808190E073
:1002100008958FEF9FEF08959091900180918F0145
:100220002FEF3FEF981748F4E92FF0E0E159FE4F28
:10023000208130E09F5F90939001C90108958091E3
:100240008F0190919001891B990B0895CF92DF92B5
:10025000EF92FF920F931F93CF93DF937C01CB011B
:100260008A0120916E01222389F0EB016B01C40EFB
:10027000D51ECC15DD0569F06991D701ED91FC9192
:100280000190F081E02DC7010995F3CF642F0E9402
:10029000D300C801DF91CF911F910F91FF90EF9094
:1002A000DF90CF900895CF93DF931F92CDB7DEB745
:1002B000698320916E012223F9F02091910120326F
:1002C00058F021E030E0FC013383228390E080E0AD
:1002D0000F90DF91CF91089580919201E82FF0E087
:1002E000E25BFE4F998190838F5F809392018093B0
:1002F000910181E090E0ECCF61E0CE0101960E9497
:10030000D300F7CF3FB7F89480914A0190914B0109
:10031000A0914C01B0914D0126B5A89B05C02F3F7F
:1003200019F00196A11DB11D3FBFBA2FA92F982F1B
:100330008827BC01CD01620F711D811D911D42E016
:10034000660F771F881F991F4A95D1F708958F92DE
:100350009F92AF92BF92CF92DF92EF92FF924B01AA
:100360005C010E9482016B017C010E9482016C1978
:100370007D098E099F09683E734081059105A8F3A8
:1003800021E0821A9108A108B10888EEC80E83E026
:10039000D81EE11CF11C81149104A104B10429F7B9
:1003A000FF90EF90DF90CF90BF90AF909F908F9095
:1003B0000895AF92BF92CF92DF92EF92FF920F9388
:1003C0001F93CF93DF936C017B018B01040F151FEB
:1003D000EB015E01AE18BF08C017D10759F0699153
:1003E000D601ED91FC910190F081E02DC6010995B7
:1003F000892B79F7C501DF91CF911F910F91FF9064
:10040000EF90DF90CF90BF90AF900895FC01538D97
:10041000448D252F30E0842F90E0821B930B5417DE
:1004200010F0CF96089501970895FC01918D828D6B
:10043000981761F0A28DAE0FBF2FB11D5D968C9104
:10044000928D9F5F9F73928F90E008958FEF9FEF43
:100450000895FC01918D828D981731F0828DE80FFF
:10046000F11D858D90E008958FEF9FEF0895FC01B9
:10047000918D228D892F90E0805C9F4F821B910986
:100480008F73992708958DE092E00E94370221E052
:10049000892B09F420E0822F089580E090E0892BD9
:1004A00029F00E94430281110C9400000895FC0180
:1004B000A48DA80FB92FB11DA35ABF4F2C91848DC5
:1004C00090E001968F739927848FA689B7892C9322
:1004D000A089B1898C91837080648C93938D848D75
:1004E000981306C00288F389E02D80818F7D808378
:1004F0000895EF92FF920F931F93CF93DF93EC0138
:1005000081E0888F9B8D8C8D98131AC0E889F989BA
:10051000808185FF15C09FB7F894EE89FF896083BD
:10052000E889F98980818370806480839FBF81E03E
:1005300090E0DF91CF911F910F91FF90EF90089580
:10054000F62E0B8D10E00F5F1F4F0F731127E02E5B
:100550008C8D8E110CC00FB607FCFACFE889F98993
:10056000808185FFF5CFCE010E945702F1CFEB8D40
:10057000EC0FFD2FF11DE35AFF4FF0829FB7F89467
:100580000B8FEA89FB8980818062CFCFCF93DF9385
:10059000EC01888D8823B9F0AA89BB89E889F9899B
:1005A0008C9185FD03C0808186FD0DC00FB607FCD0
:1005B000F7CF8C9185FFF2CF808185FFEDCFCE0103
:1005C0000E945702E9CFDF91CF910895CF93FC01AC
:1005D000C48121E020936E01C093440110929201E6
:1005E000109291018385682B81E092E00E94530173
:1005F00090919101913208F03FC08091DB0181110F
:10060000FCCF82E08093DB0181E08093DD018FEFFE
:100610008093DA011092FF019093FE01AEE4B1E005
:10062000EEEDF1E080E098132FC01092000280916F
:100630000002CC0FC82BC09300028091DC018130F6
:1006400039F51092DC01809100028093BB0080910B
:10065000BC0083FDF8CF85EC8093BC008091DB016A
:100660008230E1F38091DA018F3F31F08091DA013D
:10067000803211F08091DA01109292011092910172
:1006800010926E01CF9108952D9121938F5FCBCF62
:1006900085EEE2CF089590E080E008950F931F93D8
:1006A000CF938C01C62F0E94E6026C2F6460C801B4
:1006B0000E94E6026C2F6B7FC8010E94E60283EC69
:1006C00090E00197F1F7CF911F910F9108950F934B
:1006D0001F93CF93DF938C01D62FC42F607F642BA1
:1006E0000E944E0380E1D89FB00111246C2BC801F9
:1006F000DF91CF911F910F910C944E03CF93DF9315
:10070000CDB7DEB728970FB6F894DEBF0FBECDBFCA
:1007100098E0E0E0F1E0DE01119601900D929A95EB
:10072000E1F79091B202981708F48FEF90E0880FEC
:10073000991F21E030E02C0F3D1F820F931FFC0119
:100740006081606840E08AEA92E028960FB6F894EB
:10075000DEBF0FBECDBFDF91CF910C94670341E0A8
:100760000E94670381E090E008951F920F920FB6F8
:100770000F9211242F933F934F935F936F937F9327
:100780008F939F93AF93BF93EF93FF938091B900A3
:10079000887F803609F44AC0F0F5883209F4A7C092
:1007A00018F5803109F49BC0B8F4882309F4F9C026
:1007B000883009F494C0FF91EF91BF91AF919F9160
:1007C0008F917F916F915F914F913F912F910F90FA
:1007D0000FBE0F901F901895883109F488C08032A1
:1007E00051F78093DA0114C0803409F49DC040F4BD
:1007F0008033B9F38833F9F68093DA0185ECB0C021
:10080000803509F485C0883509F496C0883499F696
:100810000E94C900D0CF883909F48CC038F58837D8
:1008200029F050F4883611F0803729F683E0809360
:10083000DB011092D90157C0883809F47BC0803998
:1008400019F0803809F0B7CF8091D901803208F0D3
:1008500071C0E091D90181E08E0F8093D901809120
:10086000BB00F0E0E754FE4F80833DC0803B39F091
:10087000E0F4803A09F479C0883A09F09CCF84E02A
:100880008093DB011092B6011092B501E091B301A3
:10089000F091B40109958091B50181110FC081E0FB
:1008A0008093B5011092930109C0803C09F4A6CF52
:1008B000883C09F4A3CF883B09F07DCFE091B601D5
:1008C00081E08E0F8093B601F0E0ED56FE4F8081FF
:1008D0008093BB009091B6018091B50129C08091B1
:1008E00000028093BB0085EC8093BC0064CF9091A4
:1008F000FF018091FE01981758F5E091FF0181E01A
:100900008E0F8093FF01F0E0E252FE4F8081E9CF2D
:10091000E091FF0181E08E0F8093FF018091BB0089
:10092000F0E0E252FE4F80839091FF018091FE0142
:100930009817C8F285E8D8CFE091FF0181E08E0FCB
:100940008093FF018091BB00F0E0E252FE4F808374
:100950008091DD0181115CCF81E08093DC0184EA2C
:100960008093BC001092DB0126CF85EC8093BC0005
:100970001092DB018091D901803230F4E091D901ED
:10098000F0E0E754FE4F10826091D90170E0E091F1
:10099000B701F091B80189EB91E009951092D90166
:1009A0000ACF1092DA0134CF1F920F920FB60F9236
:1009B00011242F933F938F939F93AF93BF93809175
:1009C000460190914701A0914801B09149013091B1
:1009D000450123E0230F2D3758F50196A11DB11DC8
:1009E000209345018093460190934701A0934801CD
:1009F000B093490180914A0190914B01A0914C0123
:100A0000B0914D010196A11DB11D80934A019093B3
:100A10004B01A0934C01B0934D01BF91AF919F91B9
:100A20008F913F912F910F900FBE0F901F901895AF
:100A300026E8230F0296A11DB11DD2CF1F920F925F
:100A40000FB60F9211242F933F934F935F936F93A1
:100A50007F938F939F93AF93BF93EF93FF938DE01B
:100A600092E00E945702FF91EF91BF91AF919F9149
:100A70008F917F916F915F914F913F912F910F9047
:100A80000FBE0F901F9018951F920F920FB60F92E6
:100A900011242F938F939F93EF93FF93E0911D0267
:100AA000F0911E028081E0912302F091240282FDE8
:100AB0001BC09081809126028F5F8F732091270247
:100AC000821741F0E0912602F0E0E35FFD4F958F41
:100AD00080932602FF91EF919F918F912F910F901C
:100AE0000FBE0F901F9018958081F4CFE1E0F2E0E7
:100AF0001382128288EE93E0A0E0B0E084839583B5
:100B0000A683B7832CE031E031832083EDE0F2E06F
:100B10001382128284839583A683B7838EE191E04A
:100B20009183808385EC90E09587848784EC90E0C6
:100B30009787868780EC90E0918B808B81EC90E0AA
:100B4000938B828B82EC90E0958B848B86EC90E08B
:100B5000978B868B118E128E138E148EEAEAF2E03A
:100B60001382128280E391E09183808387E2848301
:100B700080E1818782E0828713860895CF93DF9397
:100B8000CDB7DEB7A1970FB6F894DEBF0FBECDBFCD
:100B9000789484B5826084BD84B5816084BD85B558
:100BA000826085BD85B5816085BD80916E00816064
:100BB00080936E001092810080918100826080930A
:100BC000810080918100816080938100809180000C
:100BD0008160809380008091B10084608093B10037
:100BE0008091B00081608093B00080917A00846031
:100BF00080937A0080917A00826080937A0080915D
:100C00007A00816080937A0080917A008068809376
:100C10007A001092C100E0911D02F0911E0282E064
:100C20008083E0911902F0911A021082E0911B0278
:100C3000F0911C028FEC808310922502E09121023A
:100C4000F091220286E08083E0911F02F091200261
:100C5000808180618083E0911F02F0912002808179
:100C600088608083E0911F02F0912002808180687B
:100C70008083E0911F02F091200280818F7D80832C
:100C80001092900110928F01109292011092910196
:100C90001092DB0181E08093DD011092DC0182E1A2
:100CA0000E94820083E10E9482008091B9008E7FC1
:100CB0008093B9008091B9008D7F8093B90088E45A
:100CC0008093B80085E48093BC008AEF90E0909315
:100CD000B4018093B3018BEF90E09093B8018093BF
:100CE000B7011092AF028091B402823018F098E000
:100CF0009093AF028093B20262E370E080E090E0F4
:100D00000E94A7016091B5028AEA92E00E94E60281
:100D100068EE73E080E090E00E94A70160E38AEA59
:100D200092E00E944E030BE416E4C8010197F1F72C
:100D300060E38AEA92E00E944E03C8010197F1F74E
:100D400060E38AEA92E00E944E0383E592E0019715
:100D5000F1F760E28AEA92E00E944E036091AF02EE
:100D6000606240E08AEA92E00E94670384E0809338
:100D7000B00240E06CE08AEA92E00E94670340E043
:100D800061E08AEA92E00E9467030BE31FE1C80179
:100D90000197F1F782E08093B10240E066E08AEAD1
:100DA00092E00E94670340E062E08AEA92E00E94DB
:100DB0006703C8010197F1F788E08093B50260E00E
:100DC0008AEA92E00E94E60288EEC82E83E0D82EDE
:100DD000E12CF12C9AE0492E512C612C712C20E051
:100DE000A22E20E0B22E80E00E947E034BE050E075
:100DF00068E371E08AEA92E00E94D90181E00E94F2
:100E00007E032FB7F894609146017091470180915D
:100E10004801909149012FBFA70196010E943D070B
:100E200019A28E010F5D1F4FCA01B901A3019201E2
:100E30000E943D07605DF80162938F012115310525
:100E40004105510589F7309761F001900020E9F7DD
:100E50003197AF01401B510BB8018AEA92E00E9422
:100E6000D901A114B10409F4BECF0E944302882322
:100E700009F4B9CF0E940000B6CFA1E21A2EAA1B36
:100E8000BB1BFD010DC0AA1FBB1FEE1FFF1FA2173A
:100E9000B307E407F50720F0A21BB30BE40BF50B37
:100EA000661F771F881F991F1A9469F760957095C0
:100EB000809590959B01AC01BD01CF010895EE0F87
:0E0EC000FF1F0590F491E02D0994F894FFCFE8
:100ECE0000004000140054000000000053012601F1
:100EDE004B03FC001F010C01FD0000000000790215
:100EEE00D9010602C60237021502290200000000CF
:100EFE00AF03D9014B034A0348656C6C6F20776FC3
:040F0E00726C64009D
:00000001FF
